:100000000EC028C027C026C025C024C023C022C0DF
:1000100021C020C01FC01EC01DC01CC01BC0112499
:100020001FBECFE5D2E0DEBFCDBF10E0A0E6B0E05E
:10003000E8EAF5E002C005900D92AE36B107D9F7B7
:1000400010E0AEE6B0E001C01D92AE36B107E1F7B8
:100050006DD2A8C2D5CFCF93DF93FC01462F99E094
:10006000C1E0D0E088B39E01028002C0220F331F9E
:100070000A94E2F7282B28BB44235CF488B3DE0102
:10008000018002C0AA0FBB1F0A94E2F7A82BA8BBED
:100090000BC088B39E01018002C0220F331F0A9457
:1000A000E2F72095282328BB642F660F26B38081B2
:1000B00030E0082E02C0359527950A94E2F720FF1C
:1000C00008C0AE0102C0440F551F8A95E2F7462BC7
:1000D00009C09E0102C0220F331F8A95E2F7422F0A
:1000E00040954623A1EEB4E01197F1F700C000005F
:1000F00088B39E01028002C0220F331F0A94E2F7E8
:100100002095282328BBA1EEB4E01197F1F700C099
:100110000000915009F0A6CF842FDF91CF91089570
:10012000FC0160834183228337B381E090E0BC010E
:1001300002C0660F771F4A95E2F7AB01432BBC0163
:1001400002C0660F771F2A95E2F79B01242B27BB7D
:1001500027B3008002C0880F991F0A94E2F78095A8
:10016000822387BB81E0868380E187830895CF92D5
:10017000DF92EF92FF920F931F93CF93DF936C0167
:10018000D22F222381F0062F172FE42EF52EC0E068
:10019000F80161918F01C6015EDFF70181937F0154
:1001A000CF5FCD17A9F7DF91CF911F910F91FF90EE
:1001B000EF90DF90CF900895EF92FF920F931F93EF
:1001C000CF93DF937C01D42F442359F0062F172FB0
:1001D000C0E0F80161918F01C7013DDFCF5FCD170E
:1001E000C1F7DF91CF911F910F91FF90EF9008958C
:1001F00048B321E030E0FC01048002C0220F331F2D
:100200000A94E2F7242B28BB089548B321E030E09C
:10021000FC01048002C0220F331F0A94E2F72095EC
:10022000422348BB089548B321E030E0FC0105803B
:1002300002C0220F331F0A94E2F7242B28BB089533
:10024000CF93DF93EC0147B381E090E09C010C80F9
:1002500002C0220F331F0A94E2F7242B27BB27B3D7
:100260000D8002C0880F991F0A94E2F7822B87BB8A
:10027000CE01CBDFCE01D7DFDF91CF91089548B318
:1002800021E030E0FC01058002C0220F331F0A94F8
:10029000E2F72095422348BB0895CF93DF93EC010A
:1002A000EEDFCE0162EED7DECE01BDDFDF91CF9172
:1002B0000895EF92FF920F931F93CF93DF938C01DA
:1002C000C62F7A01D22FDBDFCF716C2F6062C8019D
:1002D000C2DEC801B7014D2F6FDFC801A4DFDF9177
:1002E000CF911F910F91FF90EF9008950F931F935F
:1002F000CF93DF93EC018B016AE0A80125E0D9DF01
:10030000CE0160E1A80125E0D4DFDF91CF911F91FC
:100310000F9108950F931F93CF93DF93EC018B01FF
:1003200074DFCE016BE0A80125E0C3DFCE0160DF02
:10033000DF91CF911F910F910895EF92FF920F934C
:100340001F93CF93DF938C01C62F7A01D22F97DFB3
:100350006C2F6F71C8017FDEC801B701A7012D2F77
:1003600006DFC80160DFDF91CF911F910F91FF90F1
:10037000EF900895CF93DF930F92CDB7DEB767E08C
:10038000AE014F5F5F4F21E0D8DF89810F90DF9191
:10039000CF910895CF93DF930F92CDB7DEB767E18A
:1003A000AE014F5F5F4F21E0C8DF898181700F9000
:1003B000DF91CF910895CF93DF93EC01DBDF86FDD2
:1003C00005C0CE01E7DF91E0892701C081E0DF9120
:1003D000CF9108950F931F93CF93DF93EC01062FD6
:1003E000142F4DDF0F71602F6062CE0134DECE011D
:1003F000612F31DECE0117DFDF91CF911F910F9179
:10040000089521E0FC01238360E04AE0E3DF0895E2
:10041000CF93DF93EC011B82F8DECE0160E04BE06E
:10042000D9DFCE01E5DECE0167E040E3D3DFDF9127
:10043000CF910895CF93DF93EC018B81882341F016
:10044000CE0198DF807331F0CE01E2DF80E003C09F
:1004500080E001C081E0DF91CF910895CF93DF93D9
:10046000EC0165E04E81B6DFCE0161E14F81B2DF84
:10047000CE0162E14F81AEDFCE01CADFCE010DDFDA
:10048000DF91CF9108950F931F93CF93DF93EC01EA
:100490008B0170DF06C0CE016DDF807311F01B820F
:1004A00003C08B818823B9F7CE01AFDECE01A9DF6F
:1004B000CE01E5DECE0161EECEDDCE01B4DECE01B1
:1004C000DEDECE0160EAC7DDCE01B8014F8174DE09
:1004D000CE01A9DECE018CDEDF91CF911F910F916D
:1004E00008950F931F93CF93DF93EC018B01C7DE29
:1004F000CE0161E6B0DDCE01B801A8012F8137DE63
:10050000CE0191DECE0167E040E464DFDF91CF9160
:100510001F910F910895CF93DF93EC0176DECE010A
:1005200060E048E057DFDF91CF910895CF93DF93EC
:10053000CDB7DEB729970FB6F894DEBF0FBECDBF9B
:10054000CE01029660E041E022E0EADD83E08E83A6
:1005500084E08F83CE01029673DECE01029667E6B9
:1005600070E0D8DECE01029661E670E0BFDE80E288
:100570008987809160008887CE0102966FDFCE0167
:100580000296BE016F5F7F4F7EDF89818F5F898317
:100590008FE39DE0A3E081509040A040E1F700C0D0
:0805A0000000EDCFF894FFCF3D
:0E05A8000A5F6172645F006174743835000090
:00000001FF
