:100000000EC028C027C026C025C024C023C022C0DF
:1000100021C020C01FC01EC01DC01CC01BC0112499
:100020001FBECFE5D2E0DEBFCDBF10E0A0E6B0E05E
:10003000E0EDF5E002C005900D92AE36B107D9F7BC
:1000400010E0AEE6B0E001C01D92AE36B107E1F7B8
:100050007DD2BCC2D5CFFC01862F79E021E030E013
:1000600098B3A901028002C0440F551F0A94E2F719
:10007000942B98BB418198B3D90102C0AA0FBB1F32
:100080004A95E2F7AD0187FF03C09A2B98BB03C0E6
:100090004095492348BB682F660F46B3808150E0E6
:1000A000082E02C0559547950A94E2F740FF09C013
:1000B000A90102C0440F551F8A95E2F7CA01862B99
:1000C00009C0D90102C0AA0FBB1F8A95E2F7CD0172
:1000D00080958623A1EEB4E01197F1F700C00000EF
:1000E00098B3A901028002C0440F551F0A94E2F799
:1000F0004095492348BBA1EEB4E01197F1F700C049
:100100000000715009F0ACCF0895FC016083418379
:10011000228367B381E090E0DC0102C0AA0FBB1F1D
:100120004A95E2F76A2BAC0102C0440F551F2A958D
:10013000E2F7642B67BB27B3008002C0880F991FCA
:100140000A94E2F78095822387BB81E0868380E171
:1001500087830895AF92BF92CF92DF92EF92FF9282
:100160001F93CF93DF930F92CDB7DEB76C01162F9D
:100170007A01A62EB72E0AC0F50161915F01C60172
:10018000298369DFF70181937F0129818A2D811BF2
:10019000821790F30F90DF91CF911F91FF90EF9016
:1001A000DF90CF90BF90AF900895CF92DF92FF92F3
:1001B0000F931F93CF93DF930F92CDB7DEB78C01D0
:1001C000F62EC62ED72E07C0F60161916F01C80129
:1001D000498341DF49818C2D8F198417A8F30F9033
:1001E000DF91CF911F910F91FF90DF90CF900895F5
:1001F00048B321E030E0FC01048002C0220F331F2D
:100200000A94E2F7422B48BB089548B321E030E05E
:10021000FC01048002C0220F331F0A94E2F72095EC
:10022000242328BB089548B321E030E0FC01058079
:1002300002C0220F331F0A94E2F7422B48BB0895F5
:10024000CF93DF93EC0147B381E090E09C010C80F9
:1002500002C0220F331F0A94E2F7422B47BB27B399
:100260000D8002C0880F991F0A94E2F7282B27BB44
:10027000CE01CBDFCE01D7DFDF91CF91089548B318
:1002800021E030E0FC01058002C0220F331F0A94F8
:10029000E2F72095242328BB0895CF93DF93EC0148
:1002A000EEDFCE0162EED7DECE01BDDFDF91CF9172
:1002B0000895EF92FF920F931F93CF93DF9300D097
:1002C000CDB7DEB77C018A012A836983D8DF6981D3
:1002D0006F716062C701BFDEC701B8012A81422F7A
:1002E00064DFC701A0DF0F900F90DF91CF911F91C6
:1002F0000F91FF90EF9008950F931F93CF93DF938B
:100300008C01EB016AE0AE0125E0D3DFC80160E1BA
:10031000AE0125E0CEDFDF91CF911F910F910895BF
:100320000F931F93CF93DF93EC018B016EDFCE0110
:100330006BE0A80125E0BDDFCE015ADFDF91CF9150
:100340001F910F910895EF92FF920F931F93CF93F8
:10035000DF9300D0CDB7DEB77C018A012A836983A1
:100360008EDF69816F71C70176DEC701B801A80110
:100370002A81F0DEC70157DF0F900F90DF91CF91F8
:100380001F910F91FF90EF900895CF93DF930F92FD
:10039000CDB7DEB767E0AE014F5F5F4F21E0D3DF3F
:1003A00089810F90DF91CF910895CF93DF930F92C2
:1003B000CDB7DEB767E1AE014F5F5F4F21E0C3DF2E
:1003C000898181700F90DF91CF910895CF93DF9352
:1003D000EC01DBDF86FD05C0CE01E7DF91E0982769
:1003E00001C091E0892FDF91CF9108950F931F9362
:1003F000CF93DF9300D0CDB7DEB78C014A836983FA
:100400003EDF69816F716062C80125DEC8014A81E3
:10041000642F21DEC80107DF0F900F90DF91CF918D
:100420001F910F91089521E0FC01238360E04AE0D1
:10043000DDDF0895CF93DF93EC011B82E6DECE0172
:1004400060E04BE0D3DFCE01D3DECE0167E040E3D6
:10045000CDDFDF91CF910895CF93DF93EC018B81B6
:10046000882331F0CE0191DF807321F0CE01E2DFED
:1004700080E001C081E0DF91CF910895CF93DF93B9
:10048000EC0165E04E81B2DFCE0161E14F81AEDF6C
:10049000CE0162E14F81AADFCE01CCDFCE01FDDECD
:1004A000DF91CF9108950F931F93CF93DF93EC01CA
:1004B0008B016BDF06C0CE0168DF807311F01B82F9
:1004C00003C08B818823B9F7CE019FDECE01ABDF5D
:1004D000CE01D5DECE0161EEBEDDCE01A4DECE01C1
:1004E000CEDECE0160EAB7DDCE01B8014F815DDE20
:1004F000CE0199DECE017CDEDF91CF911F910F916D
:1005000008950F931F93CF93DF93EC018B01B7DE18
:10051000CE0161E6A0DDCE01B801A8012F811ADE6F
:10052000CE0181DECE0167E040E460DFDF91CF9154
:100530001F910F910895CF93DF93EC0166DECE01FA
:1005400060E048E053DFDF91CF910895CF93DF93D0
:10055000CDB7DEB729970FB6F894DEBF0FBECDBF7B
:100560008E010E5F1F4FC80160E041E022E0CDDD4B
:1005700083E08E8384E08F83C80162DEC80167E672
:1005800070E0CEDEC80161E670E0B6DE80E2898709
:10059000809160008887C80171DFBD9AF02E00E26B
:1005A0008F2D912FBE016F5F7F4F7DDF89818F5F20
:1005B00089838FE39DE0A3E081509040A040E1F764
:1005C00000C0000088B3802788BBEACFF894FFCF33
:0E05D0000A5F6172645F006174743835000068
:00000001FF
