:100000000EC028C027C026C025C024C023C022C0DF
:1000100021C020C01FC01EC01DC01CC01BC0112499
:100020001FBECFE5D2E0DEBFCDBF10E0A0E6B0E05E
:10003000E2E0F1E002C005900D92A036B107D9F7D9
:1000400010E0A0E6B0E001C01D92A036B107E1F7D4
:1000500002D055C0D5CFFFCF0F93FC016083418301
:10006000228303830F9108950F931F93FC0148B3DC
:1000700021E030E0C901038002C0880F991F0A9473
:10008000E2F7842B88BB40E081E090E058B39C010C
:10009000028002C0220F331F0A94E2F7252B28BBEF
:1000A00058B39C01018002C0220F331F0A94E2F76B
:1000B0002095252328BB26B30FE31DE023E0015044
:1000C00010402040E1F700C0000058B39C010280BE
:1000D00002C0220F331F0A94E2F72095252328BB84
:1000E0000FE31DE023E0015010402040E1F700C085
:1000F00000004F5F483051F61F910F910895F8941A
:02010000FFCF2F
:00000001FF
