:100000000EC028C027C026C025C024C023C022C0DF
:1000100021C020C01FC01EC01DC01CC01BC0112499
:100020001FBECFE5D2E0DEBFCDBF10E0A0E6B0E05E
:10003000E0EDF1E002C005900D92A036B107D9F7CE
:1000400010E0A0E6B0E001C01D92A036B107E1F7D4
:100050009DD0BCC0D5CF0F931F93FC01608341831B
:100060002283038337B381E090E0BC0102C0660FB6
:10007000771F4A95E2F7AB01432BBC0102C0660F24
:10008000771F2A95E2F79B01242BAC0102C0440F95
:10009000551F0A95E2F78A01022B07BB27B30080A0
:1000A00002C0880F991F0A94E2F78095822387BBCC
:1000B0001F910F910895DC0188B3E1E0F0E09F010A
:1000C00013960C90139702C0220F331F0A94E2F785
:1000D000282B28BB90E021E030E088B3A9011296DC
:1000E0000C90129702C0440F551F0A94E2F7482B58
:1000F00048BB66236CF488B3F90111960C901197F4
:1001000002C0EE0FFF1F0A94E2F7E82BE8BB0DC018
:1001100088B3A90111960C90119702C0440F551F86
:100120000A94E2F74095482348BBE62FEE0F46B30A
:100130008C9150E0082E02C0559547950A94E2F73D
:1001400040FF08C0B90102C0660F771F8A95E2F729
:100150006E2B09C0A90102C0440F551F8A95E2F712
:10016000642F60956E2388B3A90112960C901297A4
:1001700002C0440F551F0A94E2F74095482348BB3C
:100180009F5F983009F0A9CF862F0895CF93DF9312
:1001900000D000D0CDB7DEB7CE01019660E041E0DF
:1001A00022E003E058DFBC9A10E1CE01019662E341
:1001B00082DF8FE39DE0A3E081509040A040E1F713
:1001C00000C0000088B3812788BBEFCFF894FFCF31
:00000001FF
