:100000000EC028C027C026C025C024C023C022C0DF
:1000100021C020C01FC01EC01DC01CC01BC0112499
:100020001FBECFE5D2E0DEBFCDBF10E0A0E6B0E05E
:10003000E6E5F2E002C005900D92A036B107D9F7CF
:1000400010E0A0E6B0E001C01D92A036B107E1F7D4
:10005000E0D0FFC0D5CF0F93FC01608341832283A2
:1000600037B381E090E0BC0102C0660F771F4A956C
:10007000E2F7AB01432BBC0102C0660F771F2A9544
:10008000E2F79B01242B27BB27B3008002C0880F17
:10009000991F0A94E2F78095822387BB02500230B1
:1000A00068F448B321E030E0C901028002C0880F43
:1000B000991F0A94E2F7842B88BB0DC048B321E056
:1000C00030E0C901028002C0880F991F0A94E2F74C
:1000D0008095842388BB0F910895FC019381913012
:1000E00039F0933009F04DC0862F48E050E003C04E
:1000F000862F48E050E061E070E088235CF498B31C
:100100009B01018002C0220F331F0A94E2F7292BC2
:1001100028BB0BC098B39B01018002C0220F331F84
:100120000A94E2F72095292328BB93E09A95F1F7EA
:10013000000098B39B01028002C0220F331F0A9473
:10014000E2F7292728BB880F28B330E0008002C0DF
:10015000359527950A94E2F720FD816093E09A9502
:10016000F1F7000098B39B01028002C0220F331FF9
:100170000A94E2F7292728BB4150504009F0BDCF2F
:100180000895862F48E050E061E070E028B330E049
:10019000008002C0359527950A94E2F720FD816022
:1001A00093E09A95F1F7000098B39B01028002C09A
:1001B000220F331F0A94E2F7292728BB880F5AF42D
:1001C00098B39B01018002C0220F331F0A94E2F70B
:1001D000292B28BB0BC098B39B01018002C0220FC2
:1001E000331F0A94E2F72095292328BB93E09A95C0
:1001F000F1F7000098B39B01028002C0220F331F69
:100200000A94E2F7292728BB4150504009F0BECF9D
:100210000895CF93DF9300D000D0CDB7DEB7CE01E5
:10022000019660E041E022E000E015DFBC9A10E0BA
:10023000C498CE010196612F50DFC49A8FE39DE0F0
:10024000A3E081509040A040E1F700C000001F5F94
:06025000EFCFF894FFCF90
:00000001FF
