:100000000EC028C027C026C025C024C023C022C0DF
:1000100021C020C01FC01EC01DC01CC01BC0112499
:100020001FBECFE5D2E0DEBFCDBF10E0A0E6B0E05E
:10003000EEEDF1E002C005900D92A036B107D9F7C0
:1000400010E0A0E6B0E001C01D92A036B107E1F7D4
:100050009FD0C3C0D5CF0F931F93FC016083418312
:100060002283038367B381E090E0DC0102C0AA0F22
:10007000BB1F4A95E2F76A2BAC0102C0440F551F23
:100080002A95E2F7642BDC0102C0AA0FBB1F0A9578
:10009000E2F76A2B67BB27B3008002C0880F991F65
:1000A0000A94E2F78095822387BB1F910F910895F0
:1000B000CF93FC0198B321E030E0038002C0220F0F
:1000C000331F0A94E2F7922B98BB862F21E030E091
:1000D0005AC098B3A901028002C0440F551F0A9468
:1000E000E2F7942B98BB418198B387FF09C0B9010F
:1000F00002C0660F771F4A95E2F7962B98BB0AC09D
:10010000D90102C0AA0FBB1F4A95E2F7AD01409585
:10011000492348BB46B3908150E0092E02C0559553
:1001200047950A94E2F740FF08C0A90102C0440FB6
:10013000551F9A95E2F7842B08C0A90102C0440F0D
:10014000551F9A95E2F7409584234FE35DE063E005
:10015000415050406040E1F700C0000098B3A90151
:10016000028002C0440F551F0A94E2F740954923CC
:1001700048BB4FE35DE063E0415050406040E1F731
:1001800000C00000CF5FC83008F4A3CFCF9108951E
:10019000CF93DF9300D000D0CDB7DEB77E010894B7
:1001A000E11CF11CC70160E041E022E003E053DF05
:1001B000BC9A0E2DEF2C10E1802F9E2D6FEA78DF78
:1001C0008FE39DE0A3E081509040A040E1F700C0A4
:0E01D000000088B3812788BBEFCFF894FFCFE3
:00000001FF
