:100000000EC028C027C026C025C024C023C022C0DF
:1000100021C020C01FC01EC01DC01CC01BC0112499
:100020001FBECFE5D2E0DEBFCDBF10E0A0E6B0E05E
:10003000E2ECF1E002C005900D92A036B107D9F7CD
:1000400010E0A0E6B0E001C01D92A036B107E1F7D4
:1000500091D0B5C0D5CF0F931F93FC01608341832E
:100060002283038367B381E090E0DC0102C0AA0F22
:10007000BB1F4A95E2F76A2BAC0102C0440F551F23
:100080002A95E2F7642BDC0102C0AA0FBB1F0A9578
:10009000E2F76A2B67BB27B3008002C0880F991F65
:1000A0000A94E2F78095822387BB1F910F910895F0
:1000B000CF93FC0198B321E030E0038002C0220F0F
:1000C000331F0A94E2F7922B98BB862F61E070E011
:1000D0004CC098B39B01028002C0220F331F0A94C8
:1000E000E2F7922B98BB98B39B01018002C0220FCC
:1000F000331F0A94E2F72095292328BB26B3DB019E
:10010000008002C0AA0FBB1F0A94E2F741E050E052
:100110001A161B0614F040E050E030E0242335238B
:100120002115310511F08A2B02C0A0958A232FE3F7
:100130003DE043E0215030404040E1F700C0000086
:1001400098B39B01028002C0220F331F0A94E2F78A
:100150002095292328BB2FE33DE043E02150304088
:100160004040E1F700C00000CF5FC83008F4B1CFD5
:10017000CF910895CF93DF9300D000D0CDB7DEB7F5
:100180007E010894E11CF11CC70160E041E022E01F
:1001900003E061DFBC9A0E2DEF2C10E1802F9E2D25
:1001A0006FEA86DF8FE39DE0A3E081509040A0409E
:1001B000E1F700C0000088B3812788BBEFCFF89437
:0201C000FFCF6F
:00000001FF
