:100000000EC028C027C026C025C024C023C022C0DF
:1000100021C020C01FC01EC01DC01CC01BC0112499
:100020001FBECFE5D2E0DEBFCDBF10E0A0E6B0E05E
:10003000E8E9F1E002C005900D92A036B107D9F7CA
:1000400010E0A0E6B0E001C01D92A036B107E1F7D4
:100050007DD0A0C0D5CFFC0160834183228367B3EC
:1000600081E090E0DC0102C0AA0FBB1F4A95E2F7D5
:100070006A2BAC0102C0440F551F2A95E2F7642B8E
:1000800067BB27B3008002C0880F991F0A94E2F76C
:100090008095822387BB0895FC01862F79E021E0BB
:1000A00030E098B3A901028002C0440F551F0A94A2
:1000B000E2F7942B98BB418198B3D90102C0AA0FF3
:1000C000BB1F4A95E2F7AD0187FF03C09A2B98BB8F
:1000D00003C04095492348BB682F660F46B3808113
:1000E00050E0082E02C0559547950A94E2F740FF6C
:1000F00009C0A90102C0440F551F8A95E2F7CA0141
:10010000862B09C0D90102C0AA0FBB1F8A95E2F74E
:10011000CD0180958623A7EAB1E61197F1F700C0DB
:10012000000098B3A901028002C0440F551F0A9431
:10013000E2F74095492348BBA7EAB1E61197F1F7EA
:1001400000C00000715009F0ACCF0895CF93DF9349
:1001500000D00F92CDB7DEB78E010F5F1F4FC801E1
:1001600060E041E022E077DFBC9AFF24E02E00E16E
:100170008E2D912F6F2D90DF8FE39DE0A3E08150B6
:100180009040A040E1F700C0000088B3802788BB02
:08019000F394EECFF894FFCFC9
:00000001FF
