:100000000EC028C027C026C025C024C023C022C0DF
:1000100021C020C01FC01EC01DC01CC01BC0112499
:100020001FBECFE5D2E0DEBFCDBF10E0A0E6B0E05E
:10003000E8E1F2E002C005900D92A036B107D9F7D1
:1000400010E0A0E6B0E001C01D92A036B107E1F7D4
:10005000BED0E0C0D5CF0F93FC01608341832283E3
:1000600067B381E090E0DC0102C0AA0FBB1F4A9594
:10007000E2F76A2BAC0102C0440F551F2A95E2F744
:10008000642B67BB47B39C01008002C0220F331F63
:100090000A94E2F72095242327BB0250328128B32B
:1000A00002C0880F991F3A95E2F7023018F4282B06
:1000B00028BB03C08095822388BB0F910895FC0163
:1000C000862F9381913019F0933009F040C048E0B9
:1000D00050E061E070E0218198B3DB0102C0AA0F1B
:1000E000BB1F2A95E2F79D0187FF03C09A2B98BB9F
:1000F00003C02095292328BBB3E0BA95F1F700008F
:1001000098B39B01028002C0220F331F0A94E2F7CA
:10011000922798BB880F28B330E0008002C0359545
:1001200027950A94E2F720FD816093E09A95F1F714
:10013000000098B39B01028002C0220F331F0A9473
:10014000E2F7922798BB4150504029F6089568E0A5
:1001500070E041E050E0218198B3DA0102C0AA0FBB
:10016000BB1F2A95E2F79D0187FF03C09A2B98BB1E
:1001700003C02095292328BBB3E0BA95F1F700000E
:1001800098B39A01028002C0220F331F0A94E2F74B
:10019000922798BB880F28B330E0008002C03595C5
:1001A00027950A94E2F720FD816093E09A95F1F794
:1001B000000098B39A01028002C0220F331F0A94F4
:1001C000E2F7922798BB6150704029F60895CF93CB
:1001D000DF9300D000D0CDB7DEB77E010894E11CDC
:1001E000F11CC70160E041E022E000E034DFBC9A8E
:1001F000C49A1FEF0E2DEF2CC498802F9E2D612FD7
:100200005EDFC49A87EA91E60197F1F700C000002B
:080210001150F2CFF894FFCF6A
:00000001FF
