:100000000EC028C027C026C025C024C023C022C0DF
:1000100021C020C01FC01EC01DC01CC01BC0112499
:100020001FBECFE5D2E0DEBFCDBF10E0A0E6B0E05E
:10003000E2EEF1E002C005900D92A036B107D9F7CB
:1000400010E0A0E6B0E001C01D92A036B107E1F7D4
:100050009FD0C5C0D5CF0F931F93FC016083418310
:100060002283038367B381E090E0DC0102C0AA0F22
:10007000BB1F4A95E2F76A2BAC0102C0440F551F23
:100080002A95E2F7642BDC0102C0AA0FBB1F0A9578
:10009000E2F76A2B67BB27B3008002C0880F991F65
:1000A0000A94E2F78095822387BB1F910F910895F0
:1000B000FC0198B321E030E0038002C0220F331F1F
:1000C0000A94E2F7922B98BB862F79E021E030E08A
:1000D00098B3A901028002C0440F551F0A94E2F7A9
:1000E000942B98BB418198B3D90102C0AA0FBB1FC2
:1000F0004A95E2F7AD0187FF03C09A2B98BB03C076
:100100004095492348BB682F660F46B3808150E075
:10011000082E02C0559547950A94E2F740FF09C0A2
:10012000A90102C0440F551F8A95E2F7CA01862B28
:1001300009C0D90102C0AA0FBB1F8A95E2F7CD0101
:1001400080958623A7EAB1E61197F1F700C0000079
:1001500098B3A901028002C0440F551F0A94E2F728
:100160004095492348BBA7EAB1E61197F1F700C0D3
:100170000000715009F0ACCF98B321E030E003806B
:1001800002C0220F331F0A94E2F7922798BB08950A
:10019000CF93DF9300D000D0CDB7DEB77E010894B7
:1001A000E11CF11CC70160E041E022E003E053DF05
:1001B000BC9A10E0DE2CEF2C00E18D2D9E2D612FDE
:1001C00077DF8FE39DE0A3E081509040A040E1F70E
:1001D00000C0000088B3802788BB1F5FEECFF89473
:0201E000FFCF4F
:00000001FF
