:100000000EC028C027C026C025C024C023C022C0DF
:1000100021C020C01FC01EC01DC006C120C11124A8
:100020001FBECFE5D2E0DEBFCDBF10E0A0E6B0E05E
:10003000EAE7F4E002C005900D92A036B107D9F7C7
:1000400010E0A0E6B0E001C01D92A738B107E1F7CB
:10005000F3D111C2D5CFC09AC29ABA9AB89A8FEF8B
:100060008FB98AE28DB980EF8EB9089580916000D2
:1000700008958EB98BE292E09A95F1F78DB9B29B13
:10008000FECF00C000008DB9769BF5CF82E08A9547
:10009000F1F78FB19FEF9FB9B89A0895C098C29AAF
:1000A000B29BFECF00C00000C09A82E08A95F1F7B3
:1000B00081E008950F931F93CF93DF93EC01162FE8
:1000C00081E080936000888180FD03C083E080939D
:1000D0006000C29AB29BFECF00C00000C09800C072
:1000E0000000C298C09A0FEF809160008370C9F041
:1000F000C29888818FB980EFBCDFB8988EEFB9DFE6
:100100009091600080FF09C090FF02C086E001C0AE
:1001100085E08093600080E015C09E7F9093600032
:100120000BC0B89880EFA5DF8883113011F40FB9A8
:1001300001C01FB88EEF9DDF115021961123A1F64B
:10014000ADDF81E0DF91CF911F910F91089583DFA3
:100150007894089580DF78940895CF93DF93EC012D
:10016000660F69834A83019662E0A4DF8883DF918A
:10017000CF910895CF93DF93EC01660F69834A8393
:10018000019662E097DF8883DF91CF910895CF9346
:10019000DF93EC01660F6983019661E08BDF888352
:1001A000DF91CF9108951092630010926400109235
:1001B0006100109262008093660087B3856087BB00
:1001C000C29AC09AB89888EA8DB980EF8EB908951E
:1001D000909162009F5F9F70209161009217E1F300
:1001E000E92FF0E0E959FF4F808390936200089572
:1001F00090916400809163009817D1F3809163001F
:100200008F5F8F7080936300E0916300F0E0E958A6
:10021000FF4F80810895209164009091630081E0F8
:10022000291709F480E008951F920F920FB60F92DC
:1002300011248F9310926500B898B29B02C0B09BB6
:10024000FCCFB09902C088EF01C088EA8DB980EF79
:100250008EB98F910F900FBE0F901F9018951F921F
:100260000F920FB60F9211248F939F93EF93FF93EA
:10027000809165008230D9F1833030F4882361F0B9
:10028000813009F054C018C08430B9F1843088F04E
:10029000853009F04CC037C08FB1882331F08FB161
:1002A0008695909166008917F9F4789B39C081E0B2
:1002B00038C08FB18823C1F49091620080916100B1
:1002C000981791F0809161008F5F8F70809361002B
:1002D000E0916100F0E0E959FF4F80818FB982E041
:1002E00080936500B89A0DC088EA8DB90AC083E092
:1002F00080936500B8981FB818C085E080936500AA
:10030000B89880E713C0809164008F5F8F708093EE
:100310006400E09164008FB1F0E0E958FF4F808302
:1003200084E0809365001FB8B89A8EE78EB9FF917C
:10033000EF919F918F910F900FBE0F901F90189586
:10034000C09AC29ABA9AB89A8FEF8FB98AE28DB9D9
:1003500080EF8EB908958091600008958EB98BE288
:1003600092E09A95F1F78DB9B29BFECF00C00000E4
:100370008DB9769BF5CF82E08A95F1F78FB19FEF2B
:100380009FB9B89A0895C098C29AB29BFECF00C098
:100390000000C09A82E08A95F1F781E008950F93FA
:1003A0001F93CF93DF93EC01162F81E080936000C1
:1003B000888180FD03C083E080936000C29AB29B75
:1003C000FECF00C00000C09800C00000C298C09AD4
:1003D0000FEF809160008370C9F0C29888818FB957
:1003E00080EFBCDFB8988EEFB9DF9091600080FF9E
:1003F00009C090FF02C086E001C085E080936000E4
:1004000080E015C09E7F909360000BC0B89880EF8D
:10041000A5DF8883113011F40FB901C01FB88EEF2A
:100420009DDF115021961123A1F6ADDF81E0DF9110
:10043000CF911F910F910895CF93DF9300D000D0FB
:100440000F92CDB7DEB7B99A06DE789410E002E0DD
:10045000CE01019660E2412F80DE88B3802788BB01
:100460008FE39DE0A3E081509040A040E1F700C001
:0A04700000001F5FEDCFF894FFCFEE
:00000001FF
