:100000000EC028C027C026C025C024C023C022C0DF
:1000100021C020C01FC01EC01DC01CC01BC0112499
:100020001FBECFE5D2E0DEBFCDBF10E0A0E6B0E05E
:10003000E0EFF1E002C005900D92A036B107D9F7CC
:1000400010E0A0E6B0E001C01D92A136B107E1F7D3
:10005000AAD0CCC0D5CFC09AC29ABA9AB89A8FEF1C
:100060008FB98AE28DB980EF8EB9089580916000D2
:1000700008958EB98BE292E09A95F1F78DB9B29B13
:10008000FECF00C000008DB9769BF5CF82E08A9547
:10009000F1F78FB19FEF9FB9B89A0895C098C29AAF
:1000A000B29BFECF00C00000C09A82E08A95F1F7B3
:1000B00081E008950F931F93CF93DF93EC01162FE8
:1000C00081E080936000888180FD03C083E080939D
:1000D0006000C29AB29BFECF00C00000C09800C072
:1000E0000000C298C09A0FEF809160008370C9F041
:1000F000C29888818FB980EFBCDFB8988EEFB9DFE6
:100100009091600080FF09C090FF02C086E001C0AE
:1001100085E08093600080E015C09E7F9093600032
:100120000BC0B89880EFA5DF8883113011F40FB9A8
:1001300001C01FB88EEF9DDF115021961123A1F64B
:10014000ADDF81E0DF91CF911F910F91089583DFA3
:100150007894089580DF78940895CF93DF93EC012D
:10016000660F69834A83019662E0A4DF8883DF918A
:10017000CF910895CF93DF93EC01660F69834A8393
:10018000019662E097DF8883DF91CF910895CF9346
:10019000DF93EC01660F6983019661E08BDF888352
:1001A000DF91CF910895CF93DF9300D000D00F92CD
:1001B000CDB7DEB7B99A8E010F5F1F4FC801C7DFF9
:1001C000FF24E02E02E08E2D912F60E24F2DC5DF3F
:1001D00088B3802788BB8FE39DE0A3E081509040E7
:1001E000A040E1F700C00000F394EDCFF894FFCFFA
:00000001FF
